:100000000C942A000C9438090C946F090C94A609DE
:100010000C9447000C9447000C9447000C94470044
:100020000C9447000C9447000C9447000C94470034
:100030000C9447000C9447000C9447000C94470024
:100040000C94A1130C9447000C9447000C944700A7
:100050000C94470011241FBECFE5D4E0DEBFCDBF16
:1000600010E0A0E6B0E0E8EFF9E202C005900D92E2
:10007000A237B107D9F710E0A2E7B0E001C01D92A6
:10008000A238B107E1F70E94D8130C94FA140C942B
:100090000000EF92FF920F931F937B018C0120E0F1
:1000A00030E040E05FE40E94F50388238CF0C80153
:1000B000B70120E030E040E05FE40E94C1010E940F
:1000C00055049B01AC01205030404040504806C0D0
:1000D000C801B7010E9455049B01AC01B901CA01D6
:1000E0001F910F91FF90EF900895A0E0B0E0EBE733
:1000F000F0E00C94C314DC012B01FA019C919230C6
:1001000008F439C1EB018881823008F433C194309E
:1001100069F4843009F02FC111969C91119789815F
:10012000981709F428C1A0E6B0E025C1843009F48D
:1001300021C18230A9F4923009F01DC19A01AD01AC
:1001400088E0EA010990AE01E90109929E0181501F
:10015000C1F7E201898111969C918923818308C1AD
:10016000923009F407C112962D903C901397EB0141
:100170008A819B811496AD90BD90CD90DC901797AD
:10018000EC80FD800E811F819101281B390BB90184
:1001900037FF04C066277727621B730B6032710537
:1001A0000CF061C0121613066CF537014801062EDB
:1001B00004C096948794779467940A94D2F721E0C8
:1001C00030E040E050E004C0220F331F441F551FB1
:1001D0006A95D2F721503040404050402E213F21B7
:1001E00040235123211531054105510521F021E01E
:1001F00030E040E050E079018A01E628F72808293C
:1002000019293CC0232BD1F1260E371E350146019A
:10021000062E04C096948794779467940A94D2F734
:1002200021E030E040E050E004C0220F331F441FC3
:10023000551F6A95D2F721503040404050402A2146
:100240003B214C215D21211531054105510521F04E
:1002500021E030E040E050E059016A01A628B728CB
:10026000C828D9280BC0821593052CF01C01AA249C
:10027000BB24650103C0EE24FF24870111969C91E5
:10028000D20111968C91981709F445C0992339F041
:10029000A80197012A193B094C095D0906C0A6016E
:1002A00095012E193F09400B510B57FD08C01182D3
:1002B0003382228224833583468357831DC081E0A5
:1002C00081833382228288279927DC01821B930B4A
:1002D000A40BB50B84839583A683B7830DC0220F2F
:1002E000331F441F551F24833583468357838281E0
:1002F000938101979383828324813581468157813D
:10030000DA01C9010197A109B1098F5F9F4FAF4F72
:10031000BF4328F30BC0918333822282EA0CFB1C7B
:100320000C1D1D1DE482F5820683178383E0808304
:10033000248135814681578157FF1AC0C901AA27F8
:1003400097FDA095BA2F81709070A070B0705695EF
:10035000479537952795822B932BA42BB52B848318
:100360009583A683B7838281938101969383828349
:10037000DF0101C0D201CD01CDB7DEB7E2E10C94BF
:10038000DF14A0E2B0E0E7ECF1E00C94CF14698355
:100390007A838B839C832D833E834F835887E9E048
:1003A000EE2EF12CEC0EFD1ECE010196B7010E943F
:1003B0007E058E010F5E1F4FCE010596B8010E948B
:1003C0007E058A8991E089278A8BC701B801AE0131
:1003D000475E5F4F0E9475000E94A904A096E6E068
:1003E0000C94EB14A0E2B0E0E8EFF1E00C94CF1431
:1003F00069837A838B839C832D833E834F835887C5
:10040000F9E0EF2EF12CEC0EFD1ECE010196B701A6
:100410000E947E058E010F5E1F4FCE010596B8012A
:100420000E947E05C701B801AE01475E5F4F0E9482
:1004300075000E94A904A096E6E00C94EB14A0E2DB
:10044000B0E0E5E2F2E00C94C31469837A838B8315
:100450009C832D833E834F835887CE010196BE0136
:10046000675F7F4F0E947E05CE010596BE016F5EDD
:100470007F4F0E947E059985923088F0898982306D
:10048000C8F0943019F4823051F404C0843029F457
:10049000923081F480E690E0C6C0923049F420E0CA
:1004A0009A858A89981321E02A87CE010996BBC0D4
:1004B000823049F420E09A858A89981321E02A8BBA
:1004C000CE014196B0C02D843E844F8458886D88FB
:1004D0007E888F88988CEE24FF248701AA24BB2471
:1004E000650140E050E060E070E0E0E0F0E0C10174
:1004F00081709070892BE9F0E60CF71C081D191D1E
:100500009A01AB012A0D3B1D4C1D5D1D80E090E062
:10051000A0E0B0E0E614F7040805190520F481E036
:1005200090E0A0E0B0E0BA01A901480F591F6A1F8E
:100530007B1FAA0CBB1CCC1CDD1C97FE08C081E0F5
:1005400090E0A0E0B0E0A82AB92ACA2ADB2A3196B6
:10055000E032F10549F0660C771C881C991C569412
:10056000479437942794C3CFFA85EA892B893C892D
:100570008B859C85280F391F2E5F3F4F17C0CA01FE
:1005800081709070892B61F016950795F794E79428
:1005900080E090E0A0E0B0E8E82AF92A0A2B1B2BC3
:1005A00076956795579547952F5F3F4F77FDE7CF36
:1005B0000CC0440F551F661F771F17FD4160EE0CDE
:1005C000FF1C001F111F21503040403090E05907A0
:1005D00090E0690790E4790760F32B8F3C8FDB0193
:1005E000CA018F779070A070B07080349105A1051A
:1005F000B10561F447FD0AC0E114F10401051105DC
:1006000029F0405C5F4F6F4F7F4F40781A8EFE1786
:1006100011F081E08A8F4D8F5E8F6F8F78A383E01A
:10062000898FCE0149960E94A904A096E2E10C941C
:10063000DF14A8E1B0E0EFE1F3E00C94CB146983A0
:100640007A838B839C832D833E834F835887B9E0C5
:10065000EB2EF12CEC0EFD1ECE010196B7010E948F
:100660007E058E010F5E1F4FCE010596B8010E94D8
:100670007E052985223008F47EC03989323010F495
:10068000B8017CC08A859A8989278A87243011F02D
:10069000223031F4231709F06EC060E670E06EC0BE
:1006A000343039F41D861E861F86188A1C861B86E8
:1006B00004C0323021F484E08987B7015FC02B8504
:1006C0003C858B899C89281B390B3C872B87ED84C3
:1006D000FE840F851889AD88BE88CF88D88CEA142F
:1006E000FB040C051D0540F4EE0CFF1C001F111F40
:1006F000215030403C872B8720E030E040E050E044
:1007000080E090E0A0E0B0E460E070E0EA14FB0478
:100710000C051D0540F0282B392B4A2B5B2BEA18C2
:10072000FB080C091D09B695A79597958795EE0CC2
:10073000FF1C001F111F6F5F7F4F6F31710531F775
:10074000DA01C9018F779070A070B0708034910584
:10075000A105B10561F427FD0AC0E114F10401050A
:10076000110529F0205C3F4F4F4F5F4F20782D87B8
:100770003E874F87588BBE01675F7F4FCB010E943A
:10078000A9046896EAE00C94E714A8E1B0E0EBEC69
:10079000F3E00C94CF1469837A838B839C832D833D
:1007A0003E834F83588789E0E82EF12CEC0EFD1E26
:1007B000CE010196B7010E947E058E010F5E1F4F8C
:1007C000CE010596B8010E947E058985823040F0F1
:1007D0008989823028F0C701B8010E94F60501C05E
:1007E0008FEF6896E6E00C94EB14A8E1B0E0EBEF35
:1007F000F3E00C94CF1469837A838B839C832D83DD
:100800003E834F83588789E0E82EF12CEC0EFD1EC5
:10081000CE010196B7010E947E058E010F5E1F4F2B
:10082000CE010596B8010E947E058985823040F090
:100830008989823028F0C701B8010E94F60501C0FD
:100840008FEF6896E6E00C94EB14A8E1B0E0EBE2E1
:10085000F4E00C94CF1469837A838B839C832D837B
:100860003E834F83588789E0E82EF12CEC0EFD1E65
:10087000CE010196B7010E947E058E010F5E1F4FCB
:10088000CE010596B8010E947E058985823040F030
:100890008989823028F0C701B8010E94F60501C09D
:1008A00081E06896E6E00C94EB14ACE0B0E0EBE598
:1008B000F4E00C94D31469837A838B839C83CE01F8
:1008C0000196BE016B5F7F4F0E947E058D81823055
:1008D00061F1823050F1843021F48E81882351F10E
:1008E0002EC02F81388537FD20C06E812F31310514
:1008F0001CF06623F9F023C08EE190E0821B930B7D
:1009000029853A854B855C8504C056954795379572
:1009100027958A95D2F76623B1F05095409530958A
:1009200021953F4F4F4F5F4F0EC020E030E040E039
:1009300050E009C02FEF3FEF4FEF5FE704C020E02A
:1009400030E040E050E8B901CA012C96E2E00C9496
:10095000EF14DF92EF92FF920F931F93FC01E4805C
:10096000F58006811781D1808081823048F480E053
:1009700090E0A0E1B0E0E82AF92A0A2B1B2BA5C0E1
:10098000843009F49FC0823021F4EE24FF248701D3
:1009900005C0E114F1040105110519F4E0E0F0E0EF
:1009A00096C0628173819FEF623879070CF05BC05B
:1009B00022E83FEF261B370B2A3131052CF020E0CF
:1009C00030E040E050E02AC0B801A701022E04C088
:1009D00076956795579547950A94D2F781E090E010
:1009E000A0E0B0E004C0880F991FAA1FBB1F2A9582
:1009F000D2F70197A109B1098E219F21A023B1232C
:100A00000097A105B10521F081E090E0A0E0B0E001
:100A10009A01AB01282B392B4A2B5B2BDA01C90138
:100A20008F779070A070B07080349105A105B105EA
:100A300039F427FF09C0205C3F4F4F4F5F4F04C080
:100A4000215C3F4F4F4F5F4FE0E0F0E02030A0E0EF
:100A50003A07A0E04A07A0E45A0710F0E1E0F0E00E
:100A600079018A0127C06038710564F5FB01E158FE
:100A7000FF4FD801C7018F779070A070B07080349D
:100A80009105A105B10539F4E7FE0DC080E490E0C1
:100A9000A0E0B0E004C08FE390E0A0E0B0E0E80E9A
:100AA000F91E0A1F1B1F17FF05C016950795F7941F
:100AB000E794319687E016950795F794E7948A9521
:100AC000D1F705C0EE24FF248701EFEFF0E06E2F91
:100AD000679566276795902F9F77D794DD24D794E5
:100AE0008E2F8695492F462B582F5D29B701CA01B5
:100AF0001F910F91FF90EF90DF900895FC01DB01B3
:100B0000408151812281622F6F7770E0221F22275E
:100B1000221F9381892F880F822B282F30E0991F65
:100B20009927991F11969C93119721153105A9F5C5
:100B3000411551056105710511F482E037C082E865
:100B40009FEF13969C938E9312979A01AB0167E0E7
:100B5000220F331F441F551F6A95D1F783E08C93F2
:100B60000DC0220F331F441F551F12968D919C916B
:100B70001397019713969C938E931297203080E0E1
:100B8000380780E0480780E4580758F314962D93FF
:100B90003D934D935C93179708952F3F310579F45A
:100BA000411551056105710519F484E08C93089590
:100BB00064FF03C081E08C9312C01C9210C02F57B9
:100BC000304013963C932E93129783E08C9387E0EA
:100BD000440F551F661F771F8A95D1F770641496CE
:100BE0004D935D936D937C93179708951F93DC014C
:100BF000FB019C91923008F447C08081823008F458
:100C000043C0943051F411961C91843099F5818140
:100C1000682F70E0611B71093FC0843021F0923071
:100C200031F48230B9F18181882389F12DC0119688
:100C30001C9111978230F1F081811817D9F4129626
:100C40002D913C911397828193818217930794F0A1
:100C500028173907BCF014968D919D910D90BC9189
:100C6000A02D2481358146815781281739074A07ED
:100C70005B0718F4112341F00AC082179307A407F9
:100C8000B50740F4112319F061E070E005C06FEF83
:100C90007FEF02C060E070E0CB011F910895DF9309
:100CA000CF930F92CDB7DEB781E08983AFE5B0E097
:100CB000EFE5F0E0808180688C9389810F90CF917F
:100CC000DF910895DF93CF930F92CDB7DEB781E028
:100CD0008983AFE5B0E0EFE5F0E080818F778C931A
:100CE00089810F90CF91DF910895DF93CF93CDB796
:100CF000DEB72C970FB6F894DEBF0FBECDBF9C8336
:100D00008B831A828B819C81009709F40CC1198214
:100D1000198204C18981882F90E09C01220F331F22
:100D20008B819C81FC01E20FF31F8081813009F0EF
:100D3000F2C08981282F30E03C872B878B859C85EA
:100D40008130910509F45EC02B853C852230310548
:100D500009F4ABC08B859C85009709F0D9C0A5E547
:100D6000B0E0E5E5F0E080818C7F8C938981882F6D
:100D700090E09C01220F331F8B819C81FC01E20FCC
:100D8000F31F8181282F30E03A87298789859A854A
:100D900081309105E9F029853A85223031052CF41E
:100DA00089859A85009761F023C029853A8522308C
:100DB0003105B1F089859A8583309105D9F018C045
:100DC000A5E5B0E0E5E5F0E0808183608C9312C09A
:100DD000A5E5B0E0E5E5F0E0808182608C930AC093
:100DE000A5E5B0E0E5E5F0E0808181608C9302C08C
:100DF00083E08A83ABE5B0E0EBE5F0E080818064DE
:100E00008C9388C0A5E5B0E0E5E5F0E08081837FC4
:100E10008C938981882F90E09C01220F331F8B8156
:100E20009C81FC01E20FF31F8181282F30E038877D
:100E30002F838F81988581309105E9F02F81388546
:100E4000223031052CF48F819885009761F023C002
:100E50002F81388522303105B1F08F81988583301C
:100E60009105D9F018C0A5E5B0E0E5E5F0E0808196
:100E70008C608C9312C0A5E5B0E0E5E5F0E08081E0
:100E800088608C930AC0A5E5B0E0E5E5F0E08081DC
:100E900084608C9302C083E08A83ABE5B0E0EBE52D
:100EA000F0E0808180688C9335C0A4E5B0E0E4E593
:100EB000F0E080818F7B8C938981882F90E09C016A
:100EC000220F331F8B819C81FC01E20FF31F818174
:100ED000282F30E03E832D838D819E81009731F055
:100EE0002D813E812130310559F008C0A4E5B0E0E4
:100EF000E4E5F0E0808180648C9302C083E08A8323
:100F0000ABE5B0E0EBE5F0E0808180628C9302C05D
:100F100083E08A831A8289818F5F8983898188230C
:100F200009F4F8CE02C082E08A838A812C960FB63B
:100F3000F894DEBF0FBECDBFCF91DF910895DF9350
:100F4000CF93CDB7DEB72B970FB6F894DEBF0FBEA9
:100F5000CDBF8A836B8319828A81823008F0BDC03D
:100F60008A81282F30E03B872A878A859B858130BC
:100F7000910509F44DC02A853B852230310509F4DD
:100F800088C08A859B85009709F0A4C0A5E5B0E0DC
:100F9000E5E5F0E080818C7F8C938B81282F30E019
:100FA000398728878885998581309105F1F02885D2
:100FB0003985223031052CF488859985009769F0B0
:100FC00024C02885398522303105B9F08885998576
:100FD0008330910509F47EC018C0A5E5B0E0E5E5D1
:100FE000F0E0808183608C9375C0A5E5B0E0E5E515
:100FF000F0E0808182608C936DC0A5E5B0E0E5E50E
:10100000F0E0808181608C9365C083E0898362C059
:10101000A5E5B0E0E5E5F0E08081837F8C938B81EE
:10102000282F30E03F832E838E819F818130910570
:10103000E9F02E813F81223031052CF48E819F8191
:10104000009761F023C02E813F8122303105B1F03D
:101050008E819F8183309105E9F118C0A5E5B0E04C
:10106000E5E5F0E080818C608C9334C0A5E5B0E0CC
:10107000E5E5F0E0808188608C932CC0A5E5B0E0C8
:10108000E5E5F0E0808184608C9324C083E089836F
:1010900021C08B81282F30E03D832C838C819D8162
:1010A000009731F02C813D812130310549F010C08D
:1010B000A4E5B0E0E4E5F0E0808180648C930AC0B0
:1010C000A4E5B0E0E4E5F0E080818F7B8C9302C082
:1010D00083E0898381E0898302C083E089838981F9
:1010E0002B960FB6F894DEBF0FBECDBFCF91DF9128
:1010F0000895DF93CF9300D000D0CDB7DEB78A83B9
:1011000019828A81882369F58A81282F30E03C83FF
:101110002B838B819C818130910589F02B813C81CF
:1011200022303105A1F08B819C810097B9F4ABE5A9
:10113000B0E0EBE5F0E0808180648C930FC0ABE51C
:10114000B0E0EBE5F0E0808180688C9307C0ABE510
:10115000B0E0EBE5F0E0808180628C9381E08983F0
:1011600002C083E0898389810F900F900F900F90C8
:10117000CF91DF910895DF93CF9300D000D0CDB70A
:10118000DEB78A8319828A81882369F58A81282FAC
:1011900030E03C832B838B819C818130910589F0E9
:1011A0002B813C8122303105A1F08B819C810097FD
:1011B000B9F4ABE5B0E0EBE5F0E080818F7B8C9398
:1011C0000FC0ABE5B0E0EBE5F0E080818F778C936A
:1011D00007C0ABE5B0E0EBE5F0E080818F7D8C935C
:1011E00081E0898302C083E0898389810F900F9019
:1011F0000F900F90CF91DF910895DF93CF9300D0A0
:1012000000D000D0CDB7DEB79B838A837D836C830B
:101210004E8319828A819B810097F1F08E81882309
:10122000D9F48E81882F90E0880F991FFC01EE5829
:10123000FF4F8A819B81918380838E81882F90E0EC
:10124000880F991FFC01E858FF4F8C819D81918385
:10125000808381E0898302C082E089838981269628
:101260000FB6F894DEBF0FBECDBFCF91DF910895CA
:101270001F920F920FB60F9211242F933F934F930B
:101280005F936F937F938F939F93AF93BF93EF93EE
:10129000FF93DF93CF93CDB7DEB78091720090912B
:1012A0007300009749F0E0917200F0917300809113
:1012B0007800909179000995CF91DF91FF91EF919E
:1012C000BF91AF919F918F917F916F915F914F915E
:1012D0003F912F910F900FBE0F901F9018951F9266
:1012E0000F920FB60F9211242F933F934F935F935A
:1012F0006F937F938F939F93AF93BF93EF93FF93DE
:10130000DF93CF93CDB7DEB78091740090917500D5
:10131000009749F0E0917400F091750080917A0097
:1013200090917B000995CF91DF91FF91EF91BF9153
:10133000AF919F918F917F916F915F914F913F916D
:101340002F910F900FBE0F901F9018951F920F9224
:101350000FB60F9211242F933F934F935F936F9388
:101360007F938F939F93AF93BF93EF93FF93DF93FD
:10137000CF93CDB7DEB7809176009091770000973C
:1013800049F0E0917600F091770080917C00909197
:101390007D000995CF91DF91FF91EF91BF91AF91C2
:1013A0009F918F917F916F915F914F913F912F917D
:1013B0000F900FBE0F901F901895DF93CF9300D022
:1013C00000D00F92CDB7DEB78A836B8319828A81F2
:1013D0008430A8F58A81282F30E03D832C838C81CE
:1013E0009D8181309105D1F02C813D8122303105E4
:1013F0002CF48C819D81009761F01EC02C813D8171
:101400002230310581F08C819D818330910581F0FE
:1014100013C0EAE3F0E08B8180830EC0E7E3F0E0E5
:101420008B81808309C0E4E3F0E08B81808304C07A
:10143000E1E3F0E08B81808381E0898302C083E077
:10144000898389810F900F900F900F900F90CF910B
:10145000DF910895DF93CF9300D000D00F92CDB7E6
:10146000DEB78A836B8319828A818430A8F58A81EA
:10147000282F30E03D832C838C819D818130910524
:10148000D1F02C813D81223031052CF48C819D815D
:10149000009761F01EC02C813D812230310581F022
:1014A0008C819D818330910581F013C0EBE3F0E0E6
:1014B0008B8180830EC0E8E3F0E08B81808309C0DC
:1014C000E5E3F0E08B81808304C0E2E3F0E08B8110
:1014D000808381E0898302C083E0898389810F90C2
:1014E0000F900F900F900F90CF91DF910895DF93A1
:1014F000CF9300D000D0CDB7DEB78A8319828A811E
:10150000843008F041C08A81282F30E03C832B834F
:101510008B819C8181309105E9F02B813C812230C7
:1015200031052CF48B819C81009761F02AC02B81BE
:101530003C8122303105B1F08B819C818330910553
:10154000C9F01FC0ABE3B0E0EBE3F0E08081809531
:101550008C9317C0A8E3B0E0E8E3F0E080818095C9
:101560008C930FC0A5E3B0E0E5E3F0E080818095C7
:101570008C9307C0A2E3B0E0E2E3F0E080818095C5
:101580008C9381E0898302C083E0898389810F90F5
:101590000F900F900F90CF91DF910895DF93CF932D
:1015A00000D000D000D0CDB7DEB78A837C836B83B8
:1015B00019828B819C81009709F443C08A81843011
:1015C000E8F58A81282F30E03E832D838D819E812E
:1015D00081309105E1F02D813E81223031052CF4DE
:1015E0008D819E81009761F026C02D813E81223041
:1015F0003105A1F08D819E8183309105B1F01BC032
:10160000E9E3F0E08081EB81FC81808314C0E6E3B4
:10161000F0E08081EB81FC8180830DC0E3E3F0E0AA
:101620008081EB81FC81808306C0E0E3F0E0808173
:10163000EB81FC81808381E0898305C083E089831D
:1016400002C082E08983898126960FB6F894DEBFB6
:101650000FBECDBFCF91DF910895DF93CF9300D020
:1016600000D000D0CDB7DEB78A836B834C8319825C
:101670008A81843008F0DCC08B81883008F0D8C0C3
:101680008C81823008F0D4C08A81282F30E03E83DC
:101690002D838D819E818130910509F443C02D8178
:1016A0003E81223031052CF48D819E81009771F0AE
:1016B000BCC02D813E812230310509F45FC08D818F
:1016C0009E818330910509F485C0AFC08C81882349
:1016D000A9F4AAE3B0E0EAE3F0E08081482F8B812F
:1016E000282F30E081E090E0022E02C0880F991F81
:1016F0000A94E2F7809584238C9397C0AAE3B0E024
:10170000EAE3F0E08081482F8B81282F30E081E0F0
:1017100090E0022E02C0880F991F0A94E2F7842BF2
:101720008C9383C08C818823A9F4A7E3B0E0E7E31E
:10173000F0E08081482F8B81282F30E081E090E01D
:10174000022E02C0880F991F0A94E2F78095842325
:101750008C936BC0A7E3B0E0E7E3F0E08081482F13
:101760008B81282F30E081E090E0022E02C0880FAC
:10177000991F0A94E2F7842B8C9357C08C8188239D
:10178000A9F4A4E3B0E0E4E3F0E08081482F8B818A
:10179000282F30E081E090E0022E02C0880F991FD0
:1017A0000A94E2F7809584238C933FC0A4E3B0E0D1
:1017B000E4E3F0E08081482F8B81282F30E081E046
:1017C00090E0022E02C0880F991F0A94E2F7842B42
:1017D0008C932BC08C818823A9F4A1E3B0E0E1E3D2
:1017E000F0E08081482F8B81282F30E081E090E06D
:1017F000022E02C0880F991F0A94E2F78095842375
:101800008C9313C0A1E3B0E0E1E3F0E08081482FC6
:101810008B81282F30E081E090E0022E02C0880FFB
:10182000991F0A94E2F7842B8C9381E0898302C08C
:1018300083E08983898126960FB6F894DEBF0FBEB8
:10184000CDBFCF91DF910895DF93CF9300D000D02B
:1018500000D0CDB7DEB78A836B834C8319828A812F
:10186000843008F0DCC08B81883008F0D8C08C81CF
:10187000823008F0D4C08A81282F30E03E832D8347
:101880008D819E818130910509F443C02D813E8177
:10189000223031052CF48D819E81009771F0BCC0FF
:1018A0002D813E812230310509F45FC08D819E81FA
:1018B0008330910509F485C0AFC08C818823A9F4D9
:1018C000ABE3B0E0EBE3F0E08081482F8B81282F81
:1018D00030E081E090E0022E02C0880F991F0A9448
:1018E000E2F7809584238C9397C0ABE3B0E0EBE301
:1018F000F0E08081482F8B81282F30E081E090E05C
:10190000022E02C0880F991F0A94E2F7842B8C9351
:1019100083C08C818823A9F4A8E3B0E0E8E3F0E079
:101920008081482F8B81282F30E081E090E0022ECB
:1019300002C0880F991F0A94E2F7809584238C9344
:101940006BC0A8E3B0E0E8E3F0E08081482F8B8132
:10195000282F30E081E090E0022E02C0880F991F0E
:101960000A94E2F7842B8C9357C08C818823A9F4C6
:10197000A5E3B0E0E5E3F0E08081482F8B81282FDC
:1019800030E081E090E0022E02C0880F991F0A9497
:10199000E2F7809584238C933FC0A5E3B0E0E5E3B4
:1019A000F0E08081482F8B81282F30E081E090E0AB
:1019B000022E02C0880F991F0A94E2F7842B8C93A1
:1019C0002BC08C818823A9F4A2E3B0E0E2E3F0E02D
:1019D0008081482F8B81282F30E081E090E0022E1B
:1019E00002C0880F991F0A94E2F7809584238C9394
:1019F00013C0A2E3B0E0E2E3F0E08081482F8B81E6
:101A0000282F30E081E090E0022E02C0880F991F5D
:101A10000A94E2F7842B8C9381E0898302C083E0EF
:101A20008983898126960FB6F894DEBF0FBECDBF9D
:101A3000CF91DF910895DF93CF9300D000D00F9224
:101A4000CDB7DEB78A836B8319828A81843008F030
:101A500075C08B81883008F071C08A81282F30E0F2
:101A60003D832C838C819D818130910549F12C81AE
:101A70003D81223031052CF48C819D81009761F0ED
:101A80005AC02C813D812230310571F18C819D81BC
:101A900083309105E9F14FC0ABE3B0E0EBE3F0E058
:101AA0008081482F8B81282F30E081E090E0022E4A
:101AB00002C0880F991F0A94E2F784278C933BC0D9
:101AC000A8E3B0E0E8E3F0E08081482F8B81282F85
:101AD00030E081E090E0022E02C0880F991F0A9446
:101AE000E2F784278C9327C0A5E3B0E0E5E3F0E0BC
:101AF0008081482F8B81282F30E081E090E0022EFA
:101B000002C0880F991F0A94E2F784278C9313C0B0
:101B1000A2E3B0E0E2E3F0E08081482F8B81282F40
:101B200030E081E090E0022E02C0880F991F0A94F5
:101B3000E2F784278C9381E0898302C083E0898364
:101B400089810F900F900F900F900F90CF91DF91A0
:101B50000895DF93CF93CDB7DEB727970FB6F894EC
:101B6000DEBF0FBECDBF8A836B835D834C8319823A
:101B70008C819D81009709F47EC08A81843008F0B1
:101B800077C08B81883008F073C08A81282F30E0BD
:101B90003F832E834E815F814130510559F18E8103
:101BA0009F818230910534F42E813F8121153105CA
:101BB00069F05BC04E815F814230510579F18E81C1
:101BC0009F818330910509F43DC04FC0E9E3F0E007
:101BD0008081282F30E08B81882F90E0A90102C0FE
:101BE000559547958A95E2F7CA018170EC81FD8190
:101BF00080833BC0E6E3F0E08081282F30E08B81DA
:101C0000882F90E0A90102C0559547958A95E2F783
:101C1000CA018170EC81FD81808327C0E3E3F0E09D
:101C20008081282F30E08B81882F90E0A90102C0AD
:101C3000559547958A95E2F7CA018170EC81FD813F
:101C4000808313C0E0E3F0E08081282F30E08B81B7
:101C5000882F90E0A90102C0559547958A95E2F733
:101C6000CA018170EC81FD81808381E0898305C098
:101C700083E0898302C082E08983898127960FB639
:101C8000F894DEBF0FBECDBFCF91DF910895DF93F3
:101C9000CF9300D000D0CDB7DEB79C838B831A8260
:101CA0008B819C81009709F45CC0198255C08981A1
:101CB000282F30E0C901880F991F280F391F8B8109
:101CC0009C81FC01E20FF31F40818981282F30E0C5
:101CD000C901880F991F280F391F8B819C81FC0136
:101CE000E20FF31F9181842F692F40E00E942D0B9A
:101CF0008A838981282F30E0C901880F991F280F16
:101D0000391F8B819C81FC01E20FF31F5081898177
:101D1000282F30E0C901880F991F280F391F8B81A8
:101D20009C81FC01E20FF31F41818981282F30E063
:101D3000C901880F991F280F391F8B819C81FC01D5
:101D4000E20FF31F9281852F642F492F0E94240CEC
:101D50008A8389818F5F89838981882309F4A7CF4A
:101D600002C082E08A838A810F900F900F900F90BB
:101D7000CF91DF910895DF93CF93CDB7DEB727974B
:101D80000FB6F894DEBF0FBECDBF9D838C837F83DB
:101D90006E831A828C819D81009709F443C08E81E5
:101DA0009F81009709F43EC0EC81FD818281898387
:101DB0001B8289818130C9F4EC81FD818081EC81B5
:101DC000FD8191819E012D5F3F4F692FA9010E94E6
:101DD000A90D8B81882321F0EE81FF8110821FC025
:101DE000EE81FF8181E080831AC0EC81FD818081DA
:101DF000EC81FD8191819E012D5F3F4F692FA901EB
:101E00000E94A90D8B81882329F0EE81FF8181E05A
:101E1000808303C0EE81FF81108281E08A8381E0AC
:101E20008A8302C082E08A838A8127960FB6F8945B
:101E3000DEBF0FBECDBFCF91DF910895DF93CF936B
:101E400000D000D0CDB7DEB79C838B831A828B8104
:101E50009C81009709F41BC11982198211C18981E3
:101E6000882F90E09C01220F331F220F331F8B819C
:101E70009C81FC01E20FF31F40818981882F90E053
:101E80009C01220F331F220F331F8B819C81FC0189
:101E9000E20FF31F9181842F692F41E00E942D0BE7
:101EA0008A838981882F90E09C01220F331F220FA3
:101EB000331F8B819C81FC01E20FF31F82818330F1
:101EC00009F065C08981882F90E09C01220F331FA3
:101ED000220F331F8B819C81FC01E20FF31F838152
:101EE000813019F58981882F90E09C01220F331FE2
:101EF000220F331F8B819C81FC01E20FF31F408175
:101F00008981882F90E09C01220F331F220F331FFD
:101F10008B819C81FC01E20FF31F9181842F692F3B
:101F200041E00E94240C8A8332C08981882F90E08E
:101F30009C01220F331F220F331F8B819C81FC01D8
:101F4000E20FF31F8381823011F58981882F90E0A1
:101F50009C01220F331F220F331F8B819C81FC01B8
:101F6000E20FF31F40818981882F90E09C01220FAE
:101F7000331F220F331F8B819C81FC01E20FF31F63
:101F80009181842F692F40E00E94240C8A838981EB
:101F9000882F90E09C01220F331F220F331F8B816B
:101FA0009C81FC01E20FF31F8281843009F065C03F
:101FB0008981882F90E09C01220F331F220F331F4D
:101FC0008B819C81FC01E20FF31F8381813019F525
:101FD0008981882F90E09C01220F331F220F331F2D
:101FE0008B819C81FC01E20FF31F40818981882F46
:101FF00090E09C01220F331F220F331F8B819C81A5
:10200000FC01E20FF31F9181842F692F40E00E94B1
:10201000240C8A8332C08981882F90E09C01220F92
:10202000331F220F331F8B819C81FC01E20FF31FB2
:102030008381823011F58981882F90E09C01220FE5
:10204000331F220F331F8B819C81FC01E20FF31F92
:1020500040818981882F90E09C01220F331F220F3D
:10206000331F8B819C81FC01E20FF31F9181842F30
:10207000692F41E00E94240C8A8389818F5F8983C4
:102080008981882309F4EBCE81E08A8302C082E053
:102090008A838A810F900F900F900F90CF91DF91DC
:1020A0000895DF93CF9300D00F92CDB7DEB79B8317
:1020B0008A8319828A819B81009711F1EA81FB81D1
:1020C0008381813061F4EA81FB818081EA81FB8137
:1020D0009181692F40E00E94240C898313C0EA811A
:1020E000FB818381823071F4EA81FB818081EA8106
:1020F000FB819181692F41E00E94240C898302C0F9
:1021000082E0898389810F900F900F90CF91DF91AA
:102110000895DF93CF9300D00F92CDB7DEB79B83A6
:102120008A8319828A819B81009711F1EA81FB8160
:102130008381813061F4EA81FB818081EA81FB81C6
:102140009181692F41E00E94240C898313C0EA81A8
:10215000FB818381823071F4EA81FB818081EA8195
:10216000FB819181692F40E00E94240C898302C089
:1021700082E0898389810F900F900F90CF91DF913A
:102180000895DF93CF9300D000D000D0CDB7DEB755
:102190009C838B837E836D8319828B819C810097C6
:1021A00009F447C01A82EB81FC8183818130F1F40C
:1021B000EB81FC818081EB81FC8191819E012E5F0E
:1021C0003F4F692FA9010E94A90D89838A81882325
:1021D00029F4ED81FE8184E080832DC08A818823EB
:1021E00051F1ED81FE8183E0808325C0EB81FC818C
:1021F0008381823001F5EB81FC818081EB81FC8160
:1022000091819E012E5F3F4F692FA9010E94A90D68
:1022100089838A81882329F4ED81FE8183E080838C
:102220000AC08A81882339F0ED81FE8184E08083B1
:1022300002C082E08983898126960FB6F894DEBFBA
:102240000FBECDBFCF91DF910895DF93CF9300D024
:102250000F92CDB7DEB79B838A8319828A819B81D7
:10226000009759F0EA81FB818081EA81FB819181AD
:10227000692F0E941B0D898302C082E089838981B6
:102280000F900F900F90CF91DF910895DF93CF9330
:102290000F92CDB7DEB71982A7E2B0E0E7E2F0E037
:1022A00080818F738C93A7E2B0E0E7E2F0E0808159
:1022B00080648C93A6E2B0E0E6E2F0E08081887F63
:1022C0008C93A6E2B0E0E6E2F0E0808183608C933C
:1022D00089810F90CF91DF910895DF93CF930F9273
:1022E000CDB7DEB71982E6E2F0E08081882354F0B2
:1022F000A6E2B0E0E6E2F0E0808180688C9381E0C5
:10230000898302C081E0898389810F90CF91DF9119
:102310000895DF93CF930F92CDB7DEB71982E6E22F
:10232000F0E08081882354F4A6E2B0E0E6E2F0E039
:1023300080818F778C9381E0898302C081E08983DB
:1023400089810F90CF91DF910895DF93CF930F9202
:10235000CDB7DEB71982E6E2F0E0808182958695FE
:1023600086958370882F90E081709070009749F473
:10237000A6E2B0E0E6E2F0E0808180648C9381E048
:10238000898389810F90CF91DF910895DF93CF9357
:102390000F92CDB7DEB71982E6E2F0E08081829538
:1023A0008F70882F90E0817090700097A9F3A6E25B
:1023B000B0E0E6E2F0E0808180618C9389810F904B
:1023C000CF91DF910895DF93CF9300D00F92CDB7D7
:1023D000DEB79B838A831982E4E2F0E08081882F54
:1023E00090E0EA81FB8191838083EA81FB812081F7
:1023F0003181E5E2F0E08081882F90E0982F8827F6
:10240000822B932BEA81FB819183808389810F90BA
:102410000F900F90CF91DF910895DF93CF9300D06D
:102420000F92CDB7DEB79B838A831982E4E2F0E096
:10243000808186958695EA81FB818083EA81FB8194
:102440008081282FE5E2F0E08081882F90E0002451
:10245000969587950794969587950794982F802D44
:10246000822BEA81FB81808389810F900F900F90EE
:10247000CF91DF910895DF93CF9300D0CDB7DEB732
:102480008A8319828A818D3190F4A7E2B0E0E7E275
:10249000F0E08081807E8C93A7E2B0E0E7E2F0E09C
:1024A00090818A81892B8C9381E0898302C083E0AB
:1024B000898389810F900F90CF91DF910895DF93E9
:1024C000CF9300D000D0CDB7DEB78A8319828A813E
:1024D000883008F0A2C0A6E2B0E0E6E2F0E0808139
:1024E0008F7D8C93A0E5B0E0E0E5F0E080818F7116
:1024F0008C938A81282F30E03C832B838B819C81B5
:1025000083309105B1F12B813C81243031055CF49D
:102510008B819C8181309105E1F02B813C812230BF
:102520003105FCF470C08B819C8185309105C1F12F
:102530002B813C81253031055CF18B819C8186307B
:102540009105E9F12B813C812730310509F446C022
:102550005AC0A0E5B0E0E0E5F0E0808180628C93B5
:1025600052C0A0E5B0E0E0E5F0E0808180648C93AB
:102570004AC0A0E5B0E0E0E5F0E0808180628C93A5
:10258000A0E5B0E0E0E5F0E0808180648C933BC0A2
:10259000A0E5B0E0E0E5F0E0808180688C9333C096
:1025A000A0E5B0E0E0E5F0E0808180628C93A0E5FA
:1025B000B0E0E0E5F0E0808180688C9324C0A0E585
:1025C000B0E0E0E5F0E0808180688C93A0E5B0E0C9
:1025D000E0E5F0E0808180648C9315C0A0E5B0E078
:1025E000E0E5F0E0808180628C93A0E5B0E0E0E57A
:1025F000F0E0808180648C93A0E5B0E0E0E5F0E05D
:10260000808180688C93A6E2B0E0E6E2F0E0808111
:1026100080628C9381E0898302C083E08983898111
:102620000F900F900F900F90CF91DF910895DF934F
:10263000CF930F92CDB7DEB71982E6E2F0E080814A
:10264000829586958770882F90E08170907088239E
:1026500049F0A6E2B0E0E6E2F0E080818F7D8C9365
:1026600081E0898389810F90CF91DF910895DF9375
:10267000CF930F92CDB7DEB71982E6E2F0E080810A
:10268000869586958695882F90E08170907000974A
:1026900049F4A6E2B0E0E6E2F0E0808188608C9345
:1026A00081E0898389810F90CF91DF910895DF9335
:1026B000CF930F92CDB7DEB71982E6E2F0E08081CA
:1026C000869586958695882F90E0817090708823F6
:1026D00049F0A6E2B0E0E6E2F0E08081877F8C93EB
:1026E00081E0898389810F90CF91DF910895DF93F5
:1026F000CF9300D000D00F92CDB7DEB79B838A83F3
:102700007D836C8319828A819B81009779F08A810D
:102710009B8190937F0080937E008C819D8190931C
:1027200081008093800081E0898302C082E08983F8
:1027300089810F900F900F900F900F90CF91DF91A4
:1027400008951F920F920FB60F9211242F933F936B
:102750004F935F936F937F938F939F93AF93BF93A9
:10276000EF93FF93DF93CF93CDB7DEB780917E00D9
:1027700090917F00009749F0E0917E00F0917F00FA
:1027800080918000909181000995CF91DF91FF9118
:10279000EF91BF91AF919F918F917F916F915F91D9
:1027A0004F913F912F910F900FBE0F901F90189552
:1027B000DF93CF93CDB7DEB769970FB6F894DEBF3E
:1027C0000FBECDBF198E83E06FEF0E94DD0983E05D
:1027D0006FEF0E942A0A80E060E040E00E942D0B2B
:1027E0000E94461180E00E943B120E946D110E94DF
:1027F000A5110E94C61180E090E0A0E2B1E48D8BAB
:102800009E8BAF8BB88F6D897E898F89988D2BEACF
:102810003AEA4AEA5EE30E941F02DC01CB01898B9F
:102820009A8BAB8BBC8B69897A898B899C8920E0D8
:1028300030E040E85FE30E94250488231CF481E037
:10284000888B91C069897A898B899C8920E030E0E6
:102850004FE753E40E94C50318160CF07BC06D8946
:102860007E898F89988D20E030E04AE754E40E9409
:102870001903DC01CB018C879D87AE87BF876C85F0
:102880007D858E859F8520E030E04AE753E40E94F5
:102890001F02DC01CB0188879987AA87BB876885DF
:1028A00079858A859B8520E030E040E85FE30E94DF
:1028B000250488232CF481E090E09F838E833FC021
:1028C000688579858A859B8520E03FEF4FE757E44F
:1028D0000E94C50318164CF56C857D858E859F85F5
:1028E00020E030E040E251E40E941F02DC01CB0115
:1028F000BC01CD010E944900DC01CB019F838E8386
:102900000FC089E190E09D838C838C819D8101972C
:10291000F1F79D838C838E819F8101979F838E83A6
:102920008E819F81009769F724C0688579858A85A3
:102930009B850E944900DC01CB019F838E838E81A1
:102940009F819B838A838A819B810197F1F79B8377
:102950008A830FC069897A898B899C890E94490082
:10296000DC01CB01888B8889898389818A95F1F77D
:102970008983CE0149960E940D12998D83E0692FBB
:102980000E942A0A34CF2F923F924F925F926F9209
:102990007F928F929F92AF92BF92CF92DF92EF92EF
:1029A000FF920F931F93CF93DF93CDB7DEB7CA1B70
:1029B000DB0B0FB6F894DEBF0FBECDBF09942A889B
:1029C000398848885F846E847D848C849B84AA8443
:1029D000B984C884DF80EE80FD800C811B81AA81D0
:1029E000B981CE0FD11D0FB6F894DEBF0FBECDBF9B
:0829F000ED010895F894FFCFFA
:1029F80000000000000000000101030201030103C0
:022A08000100CB
:00000001FF
