:100000000C942A000C9447000C9447000C94470071
:100010000C9447000C9447000C9447000C94470044
:100020000C9447000C9447000C9447000C94AC09C6
:100030000C9447000C9447000C9447000C94470024
:100040000C9447000C9447000C9447000C94470014
:100050000C94470011241FBECFE5D4E0DEBFCDBF16
:1000600011E0A0E6B0E0ECEAF4E102C005900D92E8
:10007000AE36B107D9F711E0AEE6B1E001C01D928E
:10008000AB38B107E1F70E94000A0C94540A0C94B3
:100090000000EF92FF920F931F937B018C0120E0F1
:1000A00030E040E05FE40E94F50388238CF0C80153
:1000B000B70120E030E040E05FE40E94C1010E940F
:1000C00025049B01AC01205030404040504806C000
:1000D000C801B7010E9425049B01AC01B901CA0106
:1000E0001F910F91FF90EF900895A0E0B0E0EBE733
:1000F000F0E00C941D0ADC012B01FA019C91923076
:1001000008F439C1EB018881823008F433C194309E
:1001100069F4843009F02FC111969C91119789815F
:10012000981709F428C1A0E6B0E025C1843009F48D
:1001300021C18230A9F4923009F01DC19A01AD01AC
:1001400088E0EA010990AE01E90109929E0181501F
:10015000C1F7E201898111969C918923818308C1AD
:10016000923009F407C112962D903C901397EB0141
:100170008A819B811496AD90BD90CD90DC901797AD
:10018000EC80FD800E811F819101281B390BB90184
:1001900037FF04C066277727621B730B6032710537
:1001A0000CF061C0121613066CF537014801062EDB
:1001B00004C096948794779467940A94D2F721E0C8
:1001C00030E040E050E004C0220F331F441F551FB1
:1001D0006A95D2F721503040404050402E213F21B7
:1001E00040235123211531054105510521F021E01E
:1001F00030E040E050E079018A01E628F72808293C
:1002000019293CC0232BD1F1260E371E350146019A
:10021000062E04C096948794779467940A94D2F734
:1002200021E030E040E050E004C0220F331F441FC3
:10023000551F6A95D2F721503040404050402A2146
:100240003B214C215D21211531054105510521F04E
:1002500021E030E040E050E059016A01A628B728CB
:10026000C828D9280BC0821593052CF01C01AA249C
:10027000BB24650103C0EE24FF24870111969C91E5
:10028000D20111968C91981709F445C0992339F041
:10029000A80197012A193B094C095D0906C0A6016E
:1002A00095012E193F09400B510B57FD08C01182D3
:1002B0003382228224833583468357831DC081E0A5
:1002C00081833382228288279927DC01821B930B4A
:1002D000A40BB50B84839583A683B7830DC0220F2F
:1002E000331F441F551F24833583468357838281E0
:1002F000938101979383828324813581468157813D
:10030000DA01C9010197A109B1098F5F9F4FAF4F72
:10031000BF4328F30BC0918333822282EA0CFB1C7B
:100320000C1D1D1DE482F5820683178383E0808304
:10033000248135814681578157FF1AC0C901AA27F8
:1003400097FDA095BA2F81709070A070B0705695EF
:10035000479537952795822B932BA42BB52B848318
:100360009583A683B7838281938101969383828349
:10037000DF0101C0D201CD01CDB7DEB7E2E10C94BF
:10038000390AA0E2B0E0E7ECF1E00C94290A6983B5
:100390007A838B839C832D833E834F835887E9E048
:1003A000EE2EF12CEC0EFD1ECE010196B7010E943F
:1003B00016068E010F5E1F4FCE010596B8010E94F2
:1003C00016068A8991E089278A8BC701B801AE0198
:1003D000475E5F4F0E9475000E944105A096E6E0CF
:1003E0000C94450AA0E2B0E0E8EFF1E00C94290A91
:1003F00069837A838B839C832D833E834F835887C5
:10040000F9E0EF2EF12CEC0EFD1ECE010196B701A6
:100410000E9416068E010F5E1F4FCE010596B80191
:100420000E941606C701B801AE01475E5F4F0E94E9
:1004300075000E944105A096E6E00C94450AA0E2F2
:10044000B0E0E5E2F2E00C941D0A69837A838B83C5
:100450009C832D833E834F835887CE010196BE0136
:10046000675F7F4F0E941606CE010596BE016F5E44
:100470007F4F0E9416069985923088F089898230D4
:10048000C8F0943019F4823051F404C0843029F457
:10049000923081F480E690E0C6C0923049F420E0CA
:1004A0009A858A89981321E02A87CE010996BBC0D4
:1004B000823049F420E09A858A89981321E02A8BBA
:1004C000CE014196B0C02D843E844F8458886D88FB
:1004D0007E888F88988CEE24FF248701AA24BB2471
:1004E000650140E050E060E070E0E0E0F0E0C10174
:1004F00081709070892BE9F0E60CF71C081D191D1E
:100500009A01AB012A0D3B1D4C1D5D1D80E090E062
:10051000A0E0B0E0E614F7040805190520F481E036
:1005200090E0A0E0B0E0BA01A901480F591F6A1F8E
:100530007B1FAA0CBB1CCC1CDD1C97FE08C081E0F5
:1005400090E0A0E0B0E0A82AB92ACA2ADB2A3196B6
:10055000E032F10549F0660C771C881C991C569412
:10056000479437942794C3CFFA85EA892B893C892D
:100570008B859C85280F391F2E5F3F4F17C0CA01FE
:1005800081709070892B61F016950795F794E79428
:1005900080E090E0A0E0B0E8E82AF92A0A2B1B2BC3
:1005A00076956795579547952F5F3F4F77FDE7CF36
:1005B0000CC0440F551F661F771F17FD4160EE0CDE
:1005C000FF1C001F111F21503040403090E05907A0
:1005D00090E0690790E4790760F32B8F3C8FDB0193
:1005E000CA018F779070A070B07080349105A1051A
:1005F000B10561F447FD0AC0E114F10401051105DC
:1006000029F0405C5F4F6F4F7F4F40781A8EFE1786
:1006100011F081E08A8F4D8F5E8F6F8F78A383E01A
:10062000898FCE0149960E944105A096E2E10C9483
:10063000390AA8E1B0E0EFE1F3E00C94250A698300
:100640007A838B839C832D833E834F835887B9E0C5
:10065000EB2EF12CEC0EFD1ECE010196B7010E948F
:1006600016068E010F5E1F4FCE010596B8010E943F
:1006700016062985223008F47EC03989323010F4FC
:10068000B8017CC08A859A8989278A87243011F02D
:10069000223031F4231709F06EC060E670E06EC0BE
:1006A000343039F41D861E861F86188A1C861B86E8
:1006B00004C0323021F484E08987B7015FC02B8504
:1006C0003C858B899C89281B390B3C872B87ED84C3
:1006D000FE840F851889AD88BE88CF88D88CEA142F
:1006E000FB040C051D0540F4EE0CFF1C001F111F40
:1006F000215030403C872B8720E030E040E050E044
:1007000080E090E0A0E0B0E460E070E0EA14FB0478
:100710000C051D0540F0282B392B4A2B5B2BEA18C2
:10072000FB080C091D09B695A79597958795EE0CC2
:10073000FF1C001F111F6F5F7F4F6F31710531F775
:10074000DA01C9018F779070A070B0708034910584
:10075000A105B10561F427FD0AC0E114F10401050A
:10076000110529F0205C3F4F4F4F5F4F20782D87B8
:100770003E874F87588BBE01675F7F4FCB010E943A
:1007800041056896EAE00C94410AA8E1B0E0EBEC80
:10079000F3E00C94290A69837A838B839C832D83ED
:1007A0003E834F83588789E0E82EF12CEC0EFD1E26
:1007B000CE010196B7010E9416068E010F5E1F4FF3
:1007C000CE010596B8010E9416068985823040F058
:1007D0008989823028F0C701B8010E948E0601C0C5
:1007E00081E06896E6E00C94450AA8E1B0E0EBEF02
:1007F000F3E00C94290A69837A838B839C832D838D
:100800003E834F83588789E0E82EF12CEC0EFD1EC5
:10081000CE010196B7010E9416068E010F5E1F4F92
:10082000CE010596B8010E9416068985823040F0F7
:100830008989823028F0C701B8010E948E0601C064
:100840008FEF6896E6E00C94450AACE0B0E0EBE28E
:10085000F4E00C942D0A69837A838B839C83CE0108
:100860000196BE016B5F7F4F0E9416068D8182301C
:1008700061F1823050F1843021F48E81882351F16E
:100880002EC02F81388537FD20C06E812F31310574
:100890001CF06623F9F023C08EE190E0821B930BDD
:1008A00029853A854B855C8504C0569547953795D3
:1008B00027958A95D2F76623B1F0509540953095EB
:1008C00021953F4F4F4F5F4F0EC020E030E040E09A
:1008D00050E009C02FEF3FEF4FEF5FE704C020E08B
:1008E00030E040E050E8B901CA012C96E2E00C94F7
:1008F000490AA8E0B0E0EFE7F4E00C94250A7B0198
:100900008C01611571058105910519F482E08983D7
:1009100060C083E089838EE1C82ED12CDC82CB823B
:10092000ED82FE820F831887C801B7010E94F2048E
:10093000FC013197F7FF3BC0222733272E1B3F0BCB
:1009400057016801022E04C0D694C794B794A794A7
:100950000A94D2F740E050E060E070E081E090E07F
:10096000A0E0B0E004C0880F991FAA1FBB1F2A9502
:10097000D2F70197A109B1098E219F21A023B123AC
:100980000097A105B10521F041E050E060E070E082
:100990004A295B296C297D294D835E836F83788783
:1009A0008EE190E08E1B9F0B9C838B8312C030974F
:1009B00081F00E2E04C0EE0CFF1C001F111F0A94C4
:1009C000D2F7ED82FE820F831887CE1ADF0ADC820F
:1009D000CB821A82CE0101960E9441052896EAE058
:1009E0000C94410AEF92FF920F931F937B018C01AD
:1009F00080E0E81680E0F80681E0080780E018074C
:100A000088F48FEFE816F1040105110531F028F0A4
:100A100088E090E0A0E0B0E017C080E090E0A0E0C7
:100A2000B0E012C080E0E81680E0F80680E0080739
:100A300081E0180728F088E190E0A0E0B0E004C071
:100A400080E190E0A0E0B0E020E230E040E050E063
:100A5000281B390B4A0B5B0B04C016950795F794BE
:100A6000E7948A95D2F7F701E859FF4F8081281B58
:100A7000310941095109C9011F910F91FF90EF9070
:100A80000895DF92EF92FF920F931F93FC01E48091
:100A9000F58006811781D1808081823048F480E022
:100AA00090E0A0E1B0E0E82AF92A0A2B1B2BA5C0B0
:100AB000843009F49FC0823021F4EE24FF248701A2
:100AC00005C0E114F1040105110519F4E0E0F0E0BE
:100AD00096C0628173819FEF623879070CF05BC02A
:100AE00022E83FEF261B370B2A3131052CF020E09E
:100AF00030E040E050E02AC0B801A701022E04C057
:100B000076956795579547950A94D2F781E090E0DE
:100B1000A0E0B0E004C0880F991FAA1FBB1F2A9550
:100B2000D2F70197A109B1098E219F21A023B123FA
:100B30000097A105B10521F081E090E0A0E0B0E0D0
:100B40009A01AB01282B392B4A2B5B2BDA01C90107
:100B50008F779070A070B07080349105A105B105B9
:100B600039F427FF09C0205C3F4F4F4F5F4F04C04F
:100B7000215C3F4F4F4F5F4FE0E0F0E02030A0E0BE
:100B80003A07A0E04A07A0E45A0710F0E1E0F0E0DD
:100B900079018A0127C06038710564F5FB01E158CD
:100BA000FF4FD801C7018F779070A070B07080346C
:100BB0009105A105B10539F4E7FE0DC080E490E090
:100BC000A0E0B0E004C08FE390E0A0E0B0E0E80E69
:100BD000F91E0A1F1B1F17FF05C016950795F794EE
:100BE000E794319687E016950795F794E7948A95F0
:100BF000D1F705C0EE24FF248701EFEFF0E06E2F60
:100C0000679566276795902F9F77D794DD24D794B3
:100C10008E2F8695492F462B582F5D29B701CA0183
:100C20001F910F91FF90EF90DF900895FC01DB0181
:100C3000408151812281622F6F7770E0221F22272D
:100C4000221F9381892F880F822B282F30E0991F34
:100C50009927991F11969C93119721153105A9F594
:100C6000411551056105710511F482E037C082E834
:100C70009FEF13969C938E9312979A01AB0167E0B6
:100C8000220F331F441F551F6A95D1F783E08C93C1
:100C90000DC0220F331F441F551F12968D919C913A
:100CA0001397019713969C938E931297203080E0B0
:100CB000380780E0480780E4580758F314962D93CE
:100CC0003D934D935C93179708952F3F310579F429
:100CD000411551056105710519F484E08C9308955F
:100CE00064FF03C081E08C9312C01C9210C02F5788
:100CF000304013963C932E93129783E08C9387E0B9
:100D0000440F551F661F771F8A95D1F7706414969C
:100D10004D935D936D937C93179708951F93DC011A
:100D2000FB019C91923008F447C08081823008F426
:100D300043C0943051F411961C91843099F581810F
:100D4000682F70E0611B71093FC0843021F0923040
:100D500031F48230B9F18181882389F12DC0119657
:100D60001C9111978230F1F081811817D9F41296F5
:100D70002D913C911397828193818217930794F070
:100D800028173907BCF014968D919D910D90BC9158
:100D9000A02D2481358146815781281739074A07BC
:100DA0005B0718F4112341F00AC082179307A407C8
:100DB000B50740F4112319F061E070E005C06FEF52
:100DC0007FEF02C060E070E0CB011F910895DF93D8
:100DD000CF93CDB7DEB728970FB6F894DEBF0FBE1E
:100DE000CDBF9C838B831A828B819C81009709F4F1
:100DF0009DC0198296C08981882F90E0009709F0E4
:100E00008BC08B819C8190937B0180937A01EB81D5
:100E1000FC818081282F30E038872F838F8198854F
:100E20008130910509F45AC02F813885223031056F
:100E30002CF48F819885009771F06EC02F813885D2
:100E40002230310509F459C08F819885833091058E
:100E500009F45BC061C0A3E5B0E0E3E5F0E08081A8
:100E6000877B8C93A3E5B0E0E3E5F0E080818068C8
:100E70008C93EB81FC818181282F30E03E832D8390
:100E80008D819E818130910589F02D813E812230B6
:100E900031050CF441C08D819E818230910571F045
:100EA0002D813E812330310589F036C0A3E5B0E0C5
:100EB000E3E5F0E0808180618C932EC0A3E5B0E093
:100EC000E3E5F0E0808180628C9326C0A3E5B0E08A
:100ED000E3E5F0E0808180638C931EC0A3E5B0E081
:100EE000E3E5F0E0808180648C93A3E5B0E0E3E586
:100EF000F0E080818F778C930FC0A3E5B0E0E3E54D
:100F0000F0E0808188608C9307C0A3E5B0E0E3E562
:100F1000F0E0808188648C9381E08A8389818F5F8F
:100F200089838981882309F466CF02C082E08A839D
:100F30008A8128960FB6F894DEBF0FBECDBFCF9141
:100F4000DF910895DF93CF93CDB7DEB728970FB623
:100F5000F894DEBF0FBECDBF8A837C836B835E8334
:100F60004D8338872F8319828A81833010F083E084
:100F70008983898128960FB6F894DEBF0FBECDBF56
:100F8000CF91DF910895EF92FF920F931F93DF931C
:100F9000CF93CDB7DEB761970FB6F894DEBF0FBE23
:100FA000CDBF8F87798B688B1E868F85833008F045
:100FB000C3C18F85882309F0BCC1E0917A01F0910B
:100FC0007B0182819381CC01A0E0B0E0BC01CD0126
:100FD0000E9479047B018C01E0917A01F0917B0100
:100FE00084819581CC01A0E0B0E0BC01CD010E94DC
:100FF00079049B01AC01C801B7010E941903DC010F
:10100000CB01BC01CD0120E030E040E853E40E9478
:101010001F02DC01CB018A879B87AC87BD8788894B
:101020009989CC01A0E0B0E0BC01CD010E94790417
:10103000DC01CB01BC01CD012A853B854C855D855A
:101040000E941903DC01CB018E839F83A887B98797
:101050006E817F81888599850E944900DC01CB01E2
:10106000CC01A0E0B0E0BC01CD010E9479049B015D
:10107000AC016E817F81888599850E94C101DC0168
:10108000CB01BC01CD0120E030E040E050E00E9407
:10109000C503882309F4CAC06E817F81888599853C
:1010A00020E030E040E85FE30E94F201DC01CB0188
:1010B000BC01CD010E944900DC01CB019D838C83E2
:1010C0006E817F81888599850E944900DC01CB0172
:1010D000CC01A0E0B0E0BC01CD010E9479049B01ED
:1010E000AC016E817F81888599850E94C101DC01F8
:1010F000CB018E839F83A887B9876E817F81888586
:10110000998520E030E040E853EC0E941F02DC01AA
:10111000CB01BC01CD0120E030E040E853E40E9467
:10112000F201DC01CB01BC01CD010E944900DC01D0
:10113000CB018B83E2E5F0E08B818083A3E5B0E017
:10114000E3E5F0E08081887F8C93E0917A01F09173
:101150007B018281938124E08030920741F4A3E5F2
:10116000B0E0E3E5F0E0808185608C935AC0E091C7
:101170007A01F0917B018281938121E08030920796
:1011800041F4A3E5B0E0E3E5F0E0808184608C9376
:1011900048C0E0917A01F0917B0182819381803493
:1011A000910541F4A3E5B0E0E3E5F0E080818360E0
:1011B0008C9337C0E0917A01F0917B018281938119
:1011C0008830910541F4A3E5B0E0E3E5F0E08081EB
:1011D00082608C9326C0E0917A01F0917B0182813C
:1011E000938181309105E9F4A3E5B0E0E3E5F0E017
:1011F000808181608C9315C0E8E5F0E08081882FC4
:1012000090E0817090700097B9F3A8E5B0E0E8E550
:10121000F0E0808181608C938C819D8101979D831A
:101220008C838C819D81009739F781C06E817F818D
:10123000888599850E944900DC01CB019A838983C6
:10124000A3E5B0E0E3E5F0E08081887F8C93E09156
:101250007A01F0917B018281938124E080309207B2
:1012600041F4A3E5B0E0E3E5F0E0808185608C9394
:101270005AC0E0917A01F0917B018281938121E053
:101280008030920741F4A3E5B0E0E3E5F0E080812F
:1012900084608C9348C0E0917A01F0917B01828157
:1012A00093818034910541F4A3E5B0E0E3E5F0E0FB
:1012B000808183608C9337C0E0917A01F0917B014B
:1012C000828193818830910541F4A3E5B0E0E3E5A4
:1012D000F0E0808182608C9326C0E0917A01F091E9
:1012E0007B018281938181309105E9F4A3E5B0E02F
:1012F000E3E5F0E0808181608C9315C0E8E5F0E0E3
:101300008081882F90E0817090700097B9F3A8E5F4
:10131000B0E0E8E5F0E0808181608C9389819A817A
:1013200001979A83898389819A81009739F781E0AF
:101330008E8781E08E8702C083E08E878E856196DE
:101340000FB6F894DEBF0FBECDBFCF91DF911F91D6
:101350000F91FF90EF9008951F920F920FB60F928A
:1013600011242F933F934F935F936F937F938F93AA
:101370009F93AF93BF93EF93FF93DF93CF93CDB73B
:10138000DEB780916E0190916F01009731F18091ED
:10139000890190918A01019690938A018093890135
:1013A00020918001309181018091890190918A0181
:1013B0002817390791F4E2E5F0E0809186018083F7
:1013C000E0916E01F0916F0180917401909175012F
:1013D000099510928A0110928901CF91DF91FF91B6
:1013E000EF91BF91AF919F918F917F916F915F919D
:1013F0004F913F912F910F900FBE0F901F90189516
:10140000DF93CF93CDB7DEB788E691E00E94E70681
:10141000A1E3B0E0E1E3F0E0808181608C9380E0C3
:1014200068EE73E00E94C307A2E3B0E0E2E3F0E0FD
:10143000908181E089278C93F2CF2F923F924F9237
:101440005F926F927F928F929F92AF92BF92CF9254
:10145000DF92EF92FF920F931F93CF93DF93CDB75D
:10146000DEB7CA1BDB0B0FB6F894DEBF0FBECDBFD5
:1014700009942A88398848885F846E847D848C84A6
:101480009B84AA84B984C884DF80EE80FD800C81AF
:101490001B81AA81B981CE0FD11D0FB6F894DEBF92
:0C14A0000FBECDBFED010895F894FFCF02
:1014AC00000000000000000000010202030303031F
:1014BC0004040404040404040505050505050505D8
:1014CC0005050505050505050606060606060606B8
:1014DC0006060606060606060606060606060606A0
:1014EC000606060606060606070707070707070788
:1014FC000707070707070707070707070707070770
:10150C00070707070707070707070707070707075F
:10151C00070707070707070707070707070707074F
:10152C000707070707070707080808080808080837
:10153C00080808080808080808080808080808081F
:10154C00080808080808080808080808080808080F
:10155C0008080808080808080808080808080808FF
:10156C0008080808080808080808080808080808EF
:10157C0008080808080808080808080808080808DF
:10158C0008080808080808080808080808080808CF
:10159C0008080808080808080808080808080808BF
:0E15AC00080808080808080800000001E80305
:00000001FF
